:02000000B12B22
:10000800FF00030E8301BC000A08BB008A017008C8
:10001800A3007108A2007208A1007308A0000B1DBC
:100028002F28063081000B112D08F0002E08F10052
:100038002F08F2003008F300F00A0319F10A031937
:10004800F20A0319F30A7008AD007108AE007208CD
:10005800AF007308B0002308F0002208F10021085F
:10006800F2002008F3003B088A003C0E8300FF0ED4
:040078007F0E0900EE
:0A007C003F308312031388050800CB
:0A008600C030831203138804080041
:10009000831203131008F5000F08F6000E08F7008E
:1000A0005108F0005208F100F00DF10D70107008C9
:1000B000003CF3007108031C013E003CF400900179
:1000C0007408F000F10170088F00FF3073058E0096
:1000D0000C10013090000C186E286B2890010C1049
:0E00E0007508900076088F0077088E000800E3
:1000EE0083120313F101F20100307202031D812805
:1000FE001E30710203188728F10A0319F20A7B28B1
:02010E000800E7
:10011000831203135108FF3CD4004320D201D301C2
:1001200000305302031D9628510852020318A528D7
:100130005208013EF00000300318013E5307F10061
:100140007008D2007108D30090283E20D201D3015C
:1001500000305302031DAE28540852020318BD2874
:100160005208013EF00000300318013E5307F10031
:0C0170007008D2007108D300A828080015
:10017C0083120313F101F20100307202031DC8282F
:10018C00C83071020318DC28F301F4010130740249
:10019C00031DD2284D3073020318D828F30A031913
:0E01AC00F40ACC28F10A0319F20AC22808004E
:1001BA0083120313F801F9011030FC00710DF80DD8
:1001CA00F90D7408F8027508031C750FF902031873
:1001DA00F5287408F80775080318750FF90703104E
:0A01EA00F00DF10DFC0BE3280800F6
:0A01F400DF308312031388050800B2
:0C01FE00F0308312031388053E20080037
:10020A0083120313F1010F30710203180E29F10A48
:04021A0008290800A7
:08021E00831203138816080087
:10022600831203132D08CD002E08CE002F08CF0011
:100236003008D0002C08031D2129B1290030F00018
:100246002B06031D302970082A06031D3029700865
:100256002906031D30292808003A031960294D088C
:10026600F1004E08F2004F08F3005008F400280889
:10027600F1022908031C290FF2022A08031C2A0F7F
:10028600F3022B08031C2B0FF40280307406F000D7
:1002960080307002031D592900307302031D59294D
:1002A60000307202031D592900307102031C6029B7
:1002B600FA20A801A901AA01AB014D08F1004E08D8
:1002C600F2004F08F3005008F4002408F102250854
:1002D600031C250FF2022608031C260FF30227082B
:1002E600031C270FF40280307406F0008030700281
:1002F600031D872900307302031D8729003072020F
:10030600031D872900307102031CB1290F21963085
:10031600A800A901AA01AB014D08A8074E080318B9
:100326004E0FA9074F0803184F0FAA0750080318C6
:10033600500FAB079030A4000130A500A601A7011D
:100346004D08A4074E0803184E0FA5074F080318BB
:0E0356004F0FA60750080318500FA707080006
:1003640083120313AC01A401A501A601A701A801EE
:0A037400A901AA01AB01FA2008005C
:0E037E008312031332088A003108820008003F
:10038C0083120313B501B60100303602031DD029C8
:10039C006430350203180D2A0715E730D1000930F7
:1003AC00D2004820FB3087052D08B7002E08B80076
:1003BC002F08B9003008BA002D08F1002E08F20001
:1003CC002F08F3003008F4003708F1023808031C3A
:1003DC00380FF2023908031C390FF3023A08031CD8
:1003EC003A0FF40200307402031D062A0030730227
:1003FC00031D062A00307202031D062A12307102F8
:10040C000318092AE229B50A0319B60ACA290800F1
:10041C00831203139701FB3083168705FB3083127D
:04042C008705080038
:1004300083120313CD01CE018F018E010716052112
:10044000EF308705CD01CE01871A372ACD0A03196F
:10045000CE0A4E08753C031D2F2A4D08303C031868
:10046000362A6430F0000030F1005D2A242A10148E
:10047000CD01CE01871E4F2ACD0A0319CE0A4E08A0
:10048000753C031D452A4D08303C03184E2AFE30AA
:1004900090056430F0000030F1005D2A3A2AFE3009
:1004A00090050F08F100F0010E08F0040030F1048F
:0C04B0003A30F4000030F500DD200800B8
:1004BC0083120313B501B60100303602031D682AFE
:1004CC00643035020318AA2A0715DC30D100053038
:1004DC00D2004820FB3087052D08B7002E08B80045
:1004EC002F08B9003008BA002D08F1002E08F200D0
:1004FC002F08F3003008F4003708F1023808031C09
:10050C00380FF2023908031C390FF3023A08031CA6
:10051C003A0FF40200307402031D9E2A003073025D
:10052C00031D9E2A00307202031D9E2A1230710296
:10053C000318A12A7A2AF430D1000130D2004820C5
:0A054C00B50A0319B60A622A080076
:10055600FF207720F0300805F00006307004880090
:10056600CD0196304D020318BD2A4530D1008820B2
:10057600CD0AB42AFF207720F0300805F0000830B5
:0E058600700488004320BE20BE20FF20080025
:100594000E22FA2013211321132118227008CA00F5
:1005A4007108CB008030F200803071067202031DA6
:1005B400DD2A7008013C0318F32A8030F0008030F3
:1005C4004B067002031DE82A4A08143C031CF32A54
:1005D400AB22EF308805FA205E22C621B221FF202B
:1005E400F12AF0300805F000093070048800CC01CD
:1005F40006304C020318042B13213330D100882019
:0C060400CC0AFA2AFF207720CE2A08003A
:10061000F030831203130805F000083070048800DE
:10062000CA010C304A0203181A2BBF30D1008820AF
:06063000CA0A112B0800AC
:10063600F030831203130805F000013070048800BF
:10064600CA010C304A0203182D2BBF30D100882076
:06065600CA0A242B080073
:10065C004030831203130705F1007108003A031DA3
:0C066C003A2B0130F0003B2BF00108009D
:100678008030831203130705F1007108003A031D47
:0C068800482B0130F000492BF001080065
:10069400F030831203130805F0000830700488005A
:0806A4004320BE20FF200800E6
:1006AC00831203131F151F1D5C2B592B1E08F300FF
:1006BC00F4017308F100F00183161E08F0040030F9
:0406CC00F10408002D
:1006D000C030831203130605F10020300605F20036
:1006E0007108C03A031D7B2B7208003A031D7B2B57
:0A06F0000130F0007C2BF00108003F
:1006FA00F030831203130805F000013070048800FB
:08070A004320BE20FF2008007F
:10071200013083120313AC002D08A4002E08A5009B
:100722002F08A6003008A700A801A901AA01AB0161
:020732000800BD
:1007340002308316031381000630831281000B11EB
:06074400A0308B04080048
:10074A00BF218A110A128000840AB10A0319B20A67
:08075A00F003031DA52B0800AC
:1007620083120313A401A501A601A701A801A901EF
:10077200AA01AB01AC01AD01AE01AF01B0018E30F7
:1007820083169F00813083129F00013083168500FB
:1007920020308700C03087048801E0308600831251
:1007A20085018701880190019A23DF308805003096
:1007B2003002031DE62B00302F02031DE62B0B3007
:1007C2002E02031DE62BB8302D020318E92BD82B7D
:1007D2000816C201C301C401C101C801C901F03038
:1007E2000805F00009307004880000304902031D3A
:1007F200FC2BFA3048020318052C6630D100882001
:10080200C80A0319C90AF62BC0300605BF002030FA
:100812000605C000562370088312B3007108B400A5
:1008220002307102031D172C1230700203181B2CA8
:1008320088165A2C88123F08C03A031D262C4008FD
:10084200003A031D262C7D23592C3F08003A031D34
:10085200342CF0300805F00009307004880026308E
:10086200D1008820592C4008003A031D422CF03058
:100872000805F0000930700488002630D100882075
:10088200592C3F08403A031D4E2CF0300805F00069
:100892000130700488004320592C3F08803A031D20
:1008A200592CF0300805F00008307004880043200D
:1008B200052C562370088312B3007108B40002306D
:1008C2007102031D662C1230700203186A2C8816FE
:1008D2006B2C8812682370080319742CFF2089235B
:1008E2000130C100172DC20A0319C30A00304302A6
:1008F200031D7D2C28304202031CB72CC201C30108
:1009020018227008C6007108C70080307106F20014
:1009120080307202031D8F2C503070020318B72CE6
:100922008030F000803047067002031D9A2C460882
:10093200013C0318B72CFF2077207720C40A440813
:10094200033A031DA62C7D23A72C4A23F030080569
:10095200F000093070048800C501323045020318E6
:10096200B72C4530D1008820C50AAE2C3C23700834
:10097200BD002E237008BE0070080319C52C3D0867
:10098200031DC52C1B235A2C3D080319CD2C3E08F0
:10099200031DCD2C08235A2CC0300605BF00203081
:1009A2000605F1007108C0007108003A031DE32C2E
:1009B200F0300805F0000930700488005430D1008E
:1009C2008820162D3F08C03A031DF12CF03008058F
:1009D200F0000930700488005430D1008820162DB0
:1009E2003F08403A031DFF2CF0300805F0000130AB
:1009F20070048800BF30D1008820162D3F08803A4D
:100A0200031D0D2DF0300805F00008307004880039
:100A1200BF30D1008820162DF0300805F0000930D3
:100A2200700488006630D10088205A2C41080319CE
:060A32001B2DCA221B2D42
:02400E004A2F37
:00000001FF
